:100000000C9463000C948B000C948B000C948B006C
:100010000C948B000C948B000C948B000C948B0034
:100020000C948B000C948B000C948B000C948B0024
:100030000C948B000C948B000C948B000C948B0014
:100040000C94A3030C948B000C9497060C94C90693
:100050000C948B000C948B000C948B000C948B00F4
:100060000C948B000C948B0000000008000201002F
:100070000003040700000000000000000102040863
:100080001020408001020408102001020408102002
:10009000040404040404040402020202020203032E
:1000A00003030303000000002300260029000000D2
:1000B0000000250028002B0000000000240027007D
:1000C0002A004401F90611241FBECFEFD8E0DEBF9D
:1000D000CDBF11E0A0E0B1E0EAE9F1E102C0059096
:1000E0000D92A831B107D9F722E0A8E1B1E001C033
:1000F0001D92AA37B207E1F710E0C6ECD0E004C0C9
:100100002297FE010E949907C23CD107C9F70E94BD
:100110003D070C94CB080C94000040E050E063E0F5
:1001200070E088E191E00C94000240E050E064E06F
:1001300070E088E191E00C94000240E050E062E061
:1001400070E088E191E00E9400022DE830E044E692
:1001500050E060E070E086E291E00E940D0325E946
:1001600030E040E951E060E070E086E291E00C941C
:100170000D030F93CF93DF9326E040E052EC61E054
:1001800070E089ED91E00E94350688E191E00E94DF
:100190000A02C6E0D1E061E088810E94BA0401E071
:1001A00024EF31E040E050E0688186E291E00E9477
:1001B00061032DE930E048EE53E060E070E086E254
:1001C00091E00E94040341E050E062E070E088E1C9
:1001D00091E00E94000241E050E063E070E088E1BD
:1001E00091E00E94000241E050E064E070E088E1AC
:1001F00091E00E94000241E050E060E170E088E19F
:1002000091E00E94000241E050E063E170E088E18B
:1002100091E00E94000241E050E065E170E088E179
:1002200091E0DF91CF910F910C9400028FE191E06A
:100230000E94900388E191E00E947B0180911F0160
:10024000882329F086E291E00E94A70205C060E0C1
:10025000809106010E94F30441E050E062E070E00A
:1002600088E191E00E94000241E050E063E070E02C
:1002700088E191E00E94000241E050E064E070E01B
:1002800088E191E00C9400020F9386E291E00E94D5
:10029000740220E041E050E06CE070E08FE191E01A
:1002A0000E946D0309E028E049E061E070E088E128
:1002B00091E00E945D010F9108950F931F93CF93DA
:1002C000DF93EC017B836A834C832D830E8380E371
:1002D000869F8001879F100D1124C8010E949D07F1
:1002E00099838883A80160E070E0DF91CF911F912E
:1002F0000F910C94C408AF92BF92CF92DF92EF920D
:10030000FF920F931F93CF93DF93EC0160E08E81F8
:100310000E94F3048A819B8128E1289F8001299F04
:10032000100D1124680181E0C81AD108015010484D
:10033000000F111FAA24A394B12CD7FC2CC08BE072
:10034000E82EF12C60E08C810E94F304C5010E2C94
:1003500002C0880F991F0A94E2F7E881F981E00F43
:10036000F11F2081318182239323892B11F061E0D9
:1003700001C060E08D810E94F30461E08C810E94E5
:10038000F30481E0E81AF108E8F681E0C81AD10820
:1003900002501109D2CF60E08C810E94F30461E029
:1003A0008E810E94F30460E08E81DF91CF911F91D6
:1003B0000F91FF90EF90DF90CF90BF90AF900C9493
:1003C000F304DC011296ED91FC911397A8E1AE9F26
:1003D0009001AF9F300D11242617370780F0660F6C
:1003E000771FDC01ED91FC91E60FF71FCA01411563
:1003F000B0E15B0710F08FEF9FE091838083089559
:100400004130510519F44FEF5FE002C040E050E089
:100410000C94E101CF93DF93EC0188819981892BC2
:1004200091F061E08C810E94BA0461E08D810E94AC
:10043000BA0461E08E810E94BA0460E08E810E945D
:10044000F30481E001C080E0DF91CF910895FC01C9
:1004500010820895CF92DF92EF92FF92CF93DF93B5
:10046000EC016A017B018B859C85AD85BE859A0177
:10047000AB01281B390B4A0B5B0BDA01C90149811F
:100480005A816B817C8184179507A607B707D8F03E
:100490008881813019F0823029F00CC0E985FA8515
:1004A000099508C061E08885811160E068878F81C7
:1004B0000E94F304CB86DC86ED86FE868F859889C4
:1004C0000196988B8F878D819E8197FD06C02F8521
:1004D0003889281739070CF01882DF91CF91FF90E7
:1004E000EF90DF90CF9008950F931F93CF93DF93FA
:1004F000EC018C0106551F4FCE010E942702619628
:10050000C017D107C9F7DF91CF911F910F910895BF
:10051000CF92DF92EF92FF921F93CF93DF936A0106
:100520007B01EC011AE08881882329F0B701A6013C
:10053000CE010E942A02115061961111F4CFDF9171
:10054000CF911F91FF90EF90DF90CF900895CF93C0
:10055000DF93EC010E94ED03AB01BC01CE01DF9102
:10056000CF910C94880220E0FC013081332331F0DC
:100570002F5F41962A30C1F78FEF0895822F08959B
:10058000CF92DF92EF92FF920F931F93CF93DF935F
:1005900000D000D0CDB7DEB76C01790149835A8312
:1005A0006B837C830E94B302282F49815A816B811F
:1005B0007C818F3FD9F081E12802C00CD11C11242D
:1005C00081E0F601808341835283638374831683C1
:1005D0000583F286E18629830E94ED03F601638795
:1005E000748785879687108A17862981822F0F90B6
:1005F0000F900F900F90DF91CF911F910F91FF906F
:10060000EF90DF90CF9008950F931F930FEF1FEFA0
:100610000E94C0021F910F9108950F931F9301E054
:1006200010E00E94C0021F910F910895AF92BF92F7
:10063000DF92EF92FF920F931F93CF93DF9300D03F
:1006400000D0CDB7DEB75C01D62E29833A834B8329
:100650005C830E94B302182F29813A814B815C810F
:100660008F3F01F181E11802A00CB11C112482E03E
:10067000F5018083D78221833283438354830087AB
:10068000602F8D2D0E94F304EE0CFF1CF501F68205
:10069000E5820E94ED03F50163877487858796875D
:1006A000108A1786812F0F900F900F900F90DF9177
:1006B000CF911F910F91FF90EF90DF90BF90AF907F
:1006C0000895EF92FF920F93EE24EA94FE2C0E947D
:1006D00016030F91FF90EF900895FC01862F65831C
:1006E0007683AAEFB0E0B483A3832083528341834F
:1006F00060E00C94BA04CF93DF93EC016B817C81B2
:10070000882777FD8095982F0E941C048881882374
:1007100011F0188202C081E08883DF91CF910895A3
:10072000CF93DF93EC018D810E94290529813A81C5
:100730008217930729F4CE01DF91CF910C947B03AC
:10074000DF91CF9108951F920F920FB60F9211244F
:100750002F933F938F939F93AF93BF938091D1013A
:100760009091D201A091D301B091D4013091D001E8
:1007700023E0230F2D3720F40196A11DB11D05C0E4
:1007800026E8230F0296A11DB11D2093D00180936E
:10079000D1019093D201A093D301B093D401809161
:1007A000D5019091D601A091D701B091D8010196C1
:1007B000A11DB11D8093D5019093D601A093D701BF
:1007C000B093D801BF91AF919F918F913F912F919D
:1007D0000F900FBE0F901F9018952FB7F89460914F
:1007E000D1017091D2018091D3019091D4012FBF9A
:1007F00008953FB7F8948091D5019091D601A091CA
:10080000D701B091D80126B5A89B05C02F3F19F09C
:100810000196A11DB11D3FBF6627782F892F9A2F02
:10082000620F711D811D911D42E0660F771F881FA9
:10083000991F4A95D1F708958F929F92AF92BF92D8
:10084000CF92DF92EF92FF926B017C010E94F9033D
:100850004B015C01C114D104E104F104F1F00E94E8
:1008600074070E94F903681979098A099B09683E8F
:1008700073408105910570F321E0C21AD108E108A7
:10088000F10888EE880E83E0981EA11CB11CC114EB
:10089000D104E104F10429F7DDCFFF90EF90DF9060
:1008A000CF90BF90AF909F908F900895789484B52B
:1008B000826084BD84B5816084BD85B5826085BD5C
:1008C00085B5816085BDEEE6F0E080818160808342
:1008D000E1E8F0E010828081826080838081816025
:1008E0008083E0E8F0E0808181608083E1EBF0E0EC
:1008F000808184608083E0EBF0E080818160808390
:10090000EAE7F0E080818460808380818260808378
:100910008081816080838081806880831092C100A3
:100920000895833081F028F4813099F08230A1F06D
:1009300008958730A9F08830B9F08430D1F48091DF
:1009400080008F7D03C0809180008F77809380002E
:10095000089584B58F7702C084B58F7D84BD0895D6
:100960008091B0008F7703C08091B0008F7D80931D
:10097000B0000895CF93DF9390E0FC01E458FF4F5F
:100980002491FC01E057FF4F8491882349F190E0C6
:10099000880F991FFC01E854FF4FA591B49182552F
:1009A0009F4FFC01C591D4919FB7611108C0F89485
:1009B0008C91209582238C93888182230AC0623097
:1009C00051F4F8948C91322F309583238C93888145
:1009D000822B888304C0F8948C91822B8C939FBFC8
:1009E000DF91CF9108950F931F93CF93DF931F92C1
:1009F000CDB7DEB7282F30E0F901E859FF4F8491D9
:100A0000F901E458FF4F1491F901E057FF4F0491A9
:100A10000023C9F0882321F069830E949104698131
:100A2000E02FF0E0EE0FFF1FE255FF4FA591B491CC
:100A30009FB7F8948C91611103C01095812301C078
:100A4000812B8C939FBF0F90DF91CF911F910F91BE
:100A50000895CF93DF93282F30E0F901E859FF4F35
:100A60008491F901E458FF4FD491F901E057FF4F09
:100A7000C491CC2391F081110E949104EC2FF0E0FD
:100A8000EE0FFF1FEC55FF4FA591B4912C912D2334
:100A900081E090E021F480E002C080E090E0DF910E
:100AA000CF910895FC01818D228D90E0805C9F4F55
:100AB000821B91098F7399270895FC01918D828D76
:100AC000981731F0828DE80FF11D858D90E0089523
:100AD0008FEF9FEF0895FC01918D828D981761F043
:100AE000828DDF01A80FB11D5D968C91928D9F5F65
:100AF0009F73928F90E008958FEF9FEF08958FEE90
:100B000096E0892B49F080E090E0892B29F00E9443
:100B1000EF0681110C9400000895FC01848DDF0123
:100B2000A80FB11DA35ABF4F2C91848D90E0019660
:100B30008F739927848FA689B7892C93A089B1894F
:100B40008C9180648C93938D848D981306C0028859
:100B5000F389E02D80818F7D80830895CF93DF938B
:100B6000EC01888D8823C9F0EA89FB89808185FDA5
:100B700005C0A889B9898C9186FD0FC00FB607FC06
:100B8000F5CF808185FFF2CFA889B9898C9185FF47
:100B9000EDCFCE010E948D05E7CFDF91CF91089573
:100BA000CF92DF92FF920F931F93CF93DF931F9209
:100BB000CDB7DEB76C0181E0D60158968C9358977B
:100BC0005B969C915B975C968C915C97981307C0A1
:100BD0005096ED91FC915197808185FD2EC0F601D4
:100BE000038D10E00F5F1F4F0F731127F02EF601DA
:100BF000848DF81211C00FB607FCF9CFD6015096BC
:100C0000ED91FC915197808185FFF1CFC6016983F9
:100C10000E948D056981EBCF838DE80FF11DE35AAA
:100C2000FF4F6083D6015B960C935B975296ED91D4
:100C3000FC915397808180620CC0D6015696ED914D
:100C4000FC91579760835096ED91FC91519780816C
:100C50008064808381E090E00F90DF91CF911F91BD
:100C60000F91FF90DF90CF900895BF92CF92DF92C7
:100C7000EF92FF92CF93DF93EC016A017B01B22EDA
:100C8000E889F98982E08083411581EE5807610582
:100C90007105A1F060E079E08DE390E0A701960195
:100CA0000E94750721503109410951095695479510
:100CB00037952795211580E1380798F0E889F9895B
:100CC000108260E874E88EE190E0A70196010E942E
:100CD00075072150310941095109569547953795B6
:100CE0002795EC85FD853083EE85FF852083188E62
:100CF000EC89FD89B082EA89FB89808180618083EB
:100D0000EA89FB89808188608083EA89FB89808108
:100D100080688083EA89FB8980818F7D8083DF9171
:100D2000CF91FF90EF90DF90CF90BF9008951F92EA
:100D30000F920FB60F9211242F938F939F93EF93DF
:100D4000FF93E091E901F091EA018081E091EF01E8
:100D5000F091F00182FD12C090818091F2018F5FCD
:100D60008F732091F301821751F0E091F201F0E0CE
:100D7000E752FE4F958F8093F20101C08081FF9171
:100D8000EF919F918F912F910F900FBE0F901F9019
:100D900018951F920F920FB60F9211242F933F9325
:100DA0004F935F936F937F938F939F93AF93BF9373
:100DB000EF93FF9389ED91E00E948D05FF91EF91F4
:100DC000BF91AF919F918F917F916F915F914F9163
:100DD0003F912F910F900FBE0F901F90189589EDA6
:100DE00091E00E94520521E0892B09F420E0822F36
:100DF00008951092DC011092DB0188EE93E0A0E0F0
:100E0000B0E08093DD019093DE01A093DF01B09309
:100E1000E0018CE091E09093DA018093D90185ECB8
:100E200090E09093E6018093E50184EC90E090934C
:100E3000E8018093E70180EC90E09093EA018093D1
:100E4000E90181EC90E09093EC018093EB0182EC5E
:100E500090E09093EE018093ED0186EC90E090930A
:100E6000F0018093EF011092F2011092F3011092C1
:100E7000F4011092F501089508950E9456040E940D
:100E80003C070E94B900CFE7D5E00E9416012097E9
:100E9000E1F30E947F05F9CFCF92DF92EF92FF92AC
:100EA0000F931F93CF93DF937C016A01EB0100E066
:100EB00010E00C151D0571F06991D701ED91FC91C1
:100EC0000190F081E02DC7010995892B19F00F5F82
:100ED0001F4FEFCFC801DF91CF911F910F91FF906E
:100EE000EF90DF90CF9008950895A1E21A2EAA1BEB
:100EF000BB1BFD010DC0AA1FBB1FEE1FFF1FA217CA
:100F0000B307E407F50720F0A21BB30BE40BF50BC6
:100F1000661F771F881F991F1A9469F7609570954F
:100F2000809590959B01AC01BD01CF010895EE0F16
:100F3000FF1F0590F491E02D0994CF93DF93823049
:100F4000910510F482E090E0E0917802F09179024E
:100F500020E030E0A0E0B0E0309739F140815181ED
:100F600048175907B8F04817590771F482819381DF
:100F7000109729F013969C938E9312972CC0909300
:100F800079028093780227C02115310531F042178C
:100F9000530718F0A901DB0101C0EF019A01BD015F
:100FA000DF010280F381E02DD7CF21153105F9F063
:100FB000281B390B2430310580F48A819B8161150F
:100FC000710521F0FB019383828304C09093790221
:100FD00080937802FE01329644C0FE01E20FF31FB7
:100FE0008193919322503109398328833AC020910B
:100FF000760230917702232B41F420910201309147
:101000000301309377022093760220910001309102
:1010100001012115310541F42DB73EB7409104017E
:1010200050910501241B350BE0917602F091770277
:10103000E217F307A0F42E1B3F0B2817390778F0AF
:10104000AC014E5F5F4F2417350748F04E0F5F1F0E
:1010500050937702409376028193919302C0E0E02F
:10106000F0E0CF01DF91CF910895CF93DF93009708
:1010700009F487C0FC01329713821282C091780272
:10108000D0917902209781F420813181280F391F76
:1010900080917602909177028217930779F5F09309
:1010A0007702E09376026DC0DE0120E030E0AE17FB
:1010B000BF0750F412964D915C9113979D01411515
:1010C000510509F1DA01F3CFB383A2834081518145
:1010D000840F951F8A179B0771F48D919C9111972E
:1010E000840F951F02969183808312968D919C9117
:1010F0001397938382832115310529F4F0937902A4
:10110000E09378023EC0D9011396FC93EE931297B8
:101110004D915D91A40FB51FEA17FB0779F480810B
:101120009181840F951F0296D90111969C938E93FD
:101130008281938113969C938E931297E0E0F0E066
:101140008A819B81009719F0FE01EC01F9CFCE0155
:10115000029628813981820F931F20917602309167
:1011600077022817390769F4309729F41092790229
:101170001092780202C013821282D0937702C09339
:101180007602DF91CF910895DC0101C06D9341504B
:0A1190005040E0F70895F894FFCFF7
:10119A0000007A028000050000000000D0054C071C
:0811AA0052056B055D05AE0561
:00000001FF
