:100000000C9463000C948B000C948B000C948B006C
:100010000C948B000C948B000C948B000C948B0034
:100020000C948B000C948B000C948B000C948B0024
:100030000C948B000C948B000C948B000C948B0014
:100040000C946C040C948B000C9460070C94920735
:100050000C948B000C948B000C948B000C948B00F4
:100060000C948B000C948B0000000008000201002F
:100070000003040700000000000000000102040863
:100080001020408001020408102001020408102002
:10009000040404040404040402020202020203032E
:1000A00003030303000000002300260029000000D2
:1000B0000000250028002B0000000000240027007D
:1000C0002A001E01C20711241FBECFEFD8E0DEBFF9
:1000D000CDBF11E0A0E0B1E0ECE2F3E102C0059099
:1000E0000D92A831B107D9F722E0A8E1B1E001C033
:1000F0001D92A338B207E1F710E0C6ECD0E004C0CF
:100100002297FE010E946208C23CD107C9F70E94F3
:1001100006080C9494090C94000088E191E00C947A
:1001200053048091250190912601892BA9F041E08B
:1001300050E06AE070E08EE191E00E94130240E03E
:1001400050E06BE070E08EE191E00E9413021092AB
:10015000260110922501089540E050E06AE070E029
:100160008EE191E00E94130241E050E06BE070E00C
:100170008EE191E00E94130281E090E090932601CD
:100180008093250108950F93CF93DF9326E040E0FD
:100190005BE460E070E082EE91E00E94FE068EE19A
:1001A00091E00E942A028EE191E00E941C02C6E0CA
:1001B000D1E061E088810E94830501E024EF31E015
:1001C00040E050E068818FE291E00E9478032DE8E2
:1001D00030E044E650E060E070E08FE291E00E94A1
:1001E000240321E930E048EC50E060E070E08FE269
:1001F00091E0DF91CF910F910C94240388E291E07C
:100200000E94A70380912801882341F08FE291E0AA
:100210000E94C70281E08093270108958091270101
:10022000882359F060E0809106010E94BC058EE1B0
:1002300091E00E941C021092270108958F929F92D4
:10024000AF92BF92CF92DF92EF92FF920F931F93E4
:100250008FE291E00E94940220E041E050E06CE0E7
:1002600070E088E291E00E94840303E028E049E026
:1002700061E070E08EE191E00E9470011F9289E0E0
:100280008F931F9288E08F931F9287E08F9386E071
:10029000882E912C95E0A92EB12C24E0C22ED12CD1
:1002A00033E0E32EF12C02E010E021E030E040E00A
:1002B00050E06EE171E088E191E00E94BA030F9096
:1002C0000F900F900F900F900F901F910F91FF9034
:1002D000EF90DF90CF90BF90AF909F908F90089558
:1002E0000F931F93CF93DF93EC017B836A834C833F
:1002F0002D830E8380E3869F8001879F100D11243C
:10030000C8010E94660899838883A80160E070E0B4
:10031000DF91CF911F910F910C948D09AF92BF92F5
:10032000CF92DF92EF92FF920F931F93CF93DF93C1
:10033000EC0160E08E810E94BC058A819B8128E1EE
:10034000289F8001299F100D1124680181E0C81A9F
:10035000D10801501048000F111FAA24A394B12CFA
:10036000D7FC2CC08BE0E82EF12C60E08C810E9441
:10037000BC05C5010E2C02C0880F991F0A94E2F734
:10038000E881F981E00FF11F2081318182239323DD
:10039000892B11F061E001C060E08D810E94BC05F5
:1003A00061E08C810E94BC0581E0E81AF108E8F662
:1003B00081E0C81AD10802501109D2CF60E08C81C7
:1003C0000E94BC0561E08E810E94BC0560E08E81C8
:1003D000DF91CF911F910F91FF90EF90DF90CF9021
:1003E000BF90AF900C94BC05DC011296ED91FC918E
:1003F0001397A8E1AE9F9001AF9F300D11242617EF
:10040000370780F0660F771FDC01ED91FC91E60F56
:10041000F71FCA014115B0E15B0710F08FEF9FE0B5
:10042000918380830895452B19F04FEF5FE002C060
:1004300040E050E00C94F401DC01ED91FC9128E1E6
:1004400030E041E050E04193519321503109D9F718
:100450000C948E01CF93DF93EC0188819981892BD5
:1004600091F061E08C810E94830561E08D810E94A2
:10047000830561E08E810E94830560E08E810E9489
:10048000BC0581E001C080E0DF91CF910895FC01BF
:1004900010820895CF92DF92EF92FF92CF93DF9375
:1004A000EC016A017B018B859C85AD85BE859A0137
:1004B000AB01281B390B4A0B5B0BDA01C9014981DF
:1004C0005A816B817C8184179507A607B707D8F0FE
:1004D0008881813019F0823029F00CC0E985FA85D5
:1004E000099508C061E08885811160E068878F8187
:1004F0000E94BC05CB86DC86ED86FE868F859889BA
:100500000196988B8F878D819E8197FD06C02F85E0
:100510003889281739070CF01882DF91CF91FF90A6
:10052000EF90DF90CF9008950F931F93CF93DF93B9
:10053000EC018C0106551F4FCE010E9447026196C7
:10054000C017D107C9F7DF91CF911F910F9108957F
:10055000CF92DF92EF92FF921F93CF93DF936A01C6
:100560007B01EC011AE08881882329F0B701A601FC
:10057000CE010E944A02115061961111F4CFDF9111
:10058000CF911F91FF90EF90DF90CF900895CF9380
:10059000DF93EC010E94B604AB01BC01CE01DF91F8
:1005A000CF910C94A80220E0FC013081332331F07C
:1005B0002F5F41962A30C1F78FEF0895822F08955B
:1005C000CF92DF92EF92FF920F931F93CF93DF931F
:1005D00000D000D0CDB7DEB76C01790149835A83D2
:1005E0006B837C830E94D302282F49815A816B81BF
:1005F0007C818F3FD9F081E12802C00CD11C1124ED
:1006000081E0F60180834183528363837483168380
:100610000583F286E18629830E94B604F60163878A
:10062000748785879687108A17862981822F0F9075
:100630000F900F900F90DF91CF911F910F91FF902E
:10064000EF90DF90CF9008950F931F930FEF1FEF60
:100650000E94E0021F910F910895AF92BF92DF9226
:10066000EF92FF920F931F93CF93DF9300D000D0B0
:10067000CDB7DEB75C01D62E29833A834B835C83EA
:100680000E94D302182F29813A814B815C818F3FD0
:1006900001F181E11802A00CB11C112482E0F501E6
:1006A0008083D78221833283438354830087602FE2
:1006B0008D2D0E94BC05EE0CFF1CF501F682E58233
:1006C0000E94B604F5016387748785879687108A30
:1006D0001786812F0F900F900F900F90DF91CF9181
:1006E0001F910F91FF90EF90DF90BF90AF90089512
:1006F000EF92FF920F93EE24EA94FE2C0E942D03BA
:100700000F91FF90EF900895FC01862F658376830B
:10071000AAEFB0E0B483A38320835283418360E0D7
:100720000C948305CF93DF93EC016B817C81882748
:1007300077FD8095982F0E94E5048881882311F029
:10074000188202C081E08883DF91CF910895CF9312
:10075000DF93EC018D810E94F20529813A81821795
:10076000930729F4CE01DF91CF910C949203DF918E
:10077000CF9108952F923F924F925F926F927F9206
:100780008F929F92AF92BF92CF92DF92EF92FF92A1
:100790000F931F93CF93DF9300D0CDB7DEB73C010B
:1007A0002A01190180EE91E069837A830E9466082C
:1007B000FC01D3018D939C9380EE91E0DF019C01BD
:1007C0001D9221503040E1F75182408233822282D3
:1007D00015830483F782E682D186C086B386A2861B
:1007E000958684868F89988D97878687898D9A8D3F
:1007F000918B808B8B8D9C8D938B828B69817A8181
:10080000D30113967C936E93129715961C921E92A9
:1008100014970F900F90DF91CF911F910F91FF9040
:10082000EF90DF90CF90BF90AF909F908F907F9090
:100830006F905F904F903F902F900895CF92DF92EE
:10084000EF92FF920F931F93CF93DF937C016B0185
:1008500000E010E0C0E0D0E0F7012081318182812A
:100860009381F901E00FF11F60817181CC15DD05E5
:1008700018F441E050E002C040E050E00E94130252
:1008800021960E5F1F4FCA30D10531F7F7018281E3
:100890009381DF91CF911F910F91FF90EF90DF90A7
:1008A000CF900C948E01CF93DF93EC016C817D810E
:1008B0006A30710549F460E070E00E941E041D82F8
:1008C0001C82DF91CF9108956F5F7F4F7D836C8392
:1008D000DF91CF910C941E041F920F920FB60F92CE
:1008E00011242F933F938F939F93AF93BF93809146
:1008F000DA019091DB01A091DC01B091DD01309132
:10090000D90123E0230F2D3720F40196A11DB11D3D
:1009100005C026E8230F0296A11DB11D2093D90121
:100920008093DA019093DB01A093DC01B093DD01A9
:100930008091DE019091DF01A091E001B091E10191
:100940000196A11DB11D8093DE019093DF01A0935C
:10095000E001B093E101BF91AF919F918F913F91E1
:100960002F910F900FBE0F901F9018952FB7F894EE
:100970006091DA017091DB018091DC019091DD01E1
:100980002FBF08953FB7F8948091DE019091DF0169
:10099000A091E001B091E10126B5A89B05C02F3FD1
:1009A00019F00196A11DB11D3FBF6627782F892F31
:1009B0009A2F620F711D811D911D42E0660F771FF6
:1009C000881F991F4A95D1F708958F929F92AF92F1
:1009D000BF92CF92DF92EF92FF926B017C010E9457
:1009E000C2044B015C01C114D104E104F104F1F033
:1009F0000E943D080E94C204681979098A099B096E
:100A0000683E73408105910570F321E0C21AD10858
:100A1000E108F10888EE880E83E0981EA11CB11C45
:100A2000C114D104E104F10429F7DDCFFF90EF9068
:100A3000DF90CF90BF90AF909F908F900895789463
:100A400084B5826084BD84B5816084BD85B58260D3
:100A500085BD85B5816085BDEEE6F0E08081816071
:100A60008083E1E8F0E01082808182608083808171
:100A700081608083E0E8F0E0808181608083E1EB49
:100A8000F0E0808184608083E0EBF0E08081816031
:100A90008083EAE7F0E080818460808380818260E7
:100AA00080838081816080838081806880831092D0
:100AB000C1000895833081F028F4813099F08230AC
:100AC000A1F008958730A9F08830B9F08430D1F4CE
:100AD000809180008F7D03C0809180008F7780930C
:100AE0008000089584B58F7702C084B58F7D84BD62
:100AF00008958091B0008F7703C08091B0008F7D02
:100B00008093B0000895CF93DF9390E0FC01E45808
:100B1000FF4F2491FC01E057FF4F8491882349F156
:100B200090E0880F991FFC01E854FF4FA591B49104
:100B300082559F4FFC01C591D4919FB7611108C0A8
:100B4000F8948C91209582238C93888182230AC00B
:100B5000623051F4F8948C91322F309583238C932A
:100B60008881822B888304C0F8948C91822B8C938B
:100B70009FBFDF91CF9108950F931F93CF93DF9382
:100B80001F92CDB7DEB7282F30E0F901E859FF4FAB
:100B90008491F901E458FF4F1491F901E057FF4F98
:100BA00004910023C9F0882321F069830E945A052B
:100BB0006981E02FF0E0EE0FFF1FE255FF4FA59196
:100BC000B4919FB7F8948C91611103C01095812363
:100BD00001C0812B8C939FBF0F90DF91CF911F910C
:100BE0000F910895CF93DF93282F30E0F901E85952
:100BF000FF4F8491F901E458FF4FD491F901E05778
:100C0000FF4FC491CC2391F081110E945A05EC2F23
:100C1000F0E0EE0FFF1FEC55FF4FA591B4912C9122
:100C20002D2381E090E021F480E002C080E090E09C
:100C3000DF91CF910895FC01818D228D90E0805C41
:100C40009F4F821B91098F7399270895FC01918D05
:100C5000828D981731F0828DE80FF11D858D90E01F
:100C600008958FEF9FEF0895FC01918D828D981765
:100C700061F0828DDF01A80FB11D5D968C91928D80
:100C80009F5F9F73928F90E008958FEF9FEF08957D
:100C900088EB97E0892B49F080E090E0892B29F0E0
:100CA0000E94B80781110C9400000895FC01848D06
:100CB000DF01A80FB11DA35ABF4F2C91848D90E086
:100CC00001968F739927848FA689B7892C93A08961
:100CD000B1898C9180648C93938D848D981306C018
:100CE0000288F389E02D80818F7D80830895CF93E2
:100CF000DF93EC01888D8823C9F0EA89FB89808124
:100D000085FD05C0A889B9898C9186FD0FC00FB6F5
:100D100007FCF5CF808185FFF2CFA889B9898C9136
:100D200085FFEDCFCE010E945606E7CFDF91CF9130
:100D30000895CF92DF92FF920F931F93CF93DF938B
:100D40001F92CDB7DEB76C0181E0D60158968C9327
:100D500058975B969C915B975C968C915C979813E7
:100D600007C05096ED91FC915197808185FD2EC072
:100D7000F601038D10E00F5F1F4F0F731127F02E48
:100D8000F601848DF81211C00FB607FCF9CFD60119
:100D90005096ED91FC915197808185FFF1CFC6016E
:100DA00069830E9456066981EBCF838DE80FF11DA0
:100DB000E35AFF4F6083D6015B960C935B97529684
:100DC000ED91FC915397808180620CC0D6015696BC
:100DD000ED91FC91579760835096ED91FC9151975E
:100DE00080818064808381E090E00F90DF91CF91DB
:100DF0001F910F91FF90DF90CF900895BF92CF92F7
:100E0000DF92EF92FF92CF93DF93EC016A017B01B7
:100E1000B22EE889F98982E08083411581EE580776
:100E200061057105A1F060E079E08DE390E0A70134
:100E300096010E943E0821503109410951095695F9
:100E4000479537952795211580E1380798F0E8896F
:100E5000F989108260E874E88EE190E0A7019601BC
:100E60000E943E0821503109410951095695479584
:100E700037952795EC85FD853083EE85FF852083AA
:100E8000188EEC89FD89B082EA89FB8980818061B6
:100E90008083EA89FB89808188608083EA89FB8975
:100EA000808180688083EA89FB8980818F7D80834F
:100EB000DF91CF91FF90EF90DF90CF90BF9008959A
:100EC0001F920F920FB60F9211242F938F939F931F
:100ED000EF93FF93E091F201F091F3018081E091B3
:100EE000F801F091F90182FD12C090818091FB011F
:100EF0008F5F8F732091FC01821751F0E091FB010D
:100F0000F0E0EE51FE4F958F8093FB0101C0808190
:100F1000FF91EF919F918F912F910F900FBE0F90A6
:100F20001F9018951F920F920FB60F9211242F93B6
:100F30003F934F935F936F937F938F939F93AF9361
:100F4000BF93EF93FF9382EE91E00E945606FF91CC
:100F5000EF91BF91AF919F918F917F916F915F9131
:100F60004F913F912F910F900FBE0F901F901895AA
:100F700082EE91E00E941B0621E0892B09F420E01B
:100F8000822F08951092E5011092E40188EE93E01B
:100F9000A0E0B0E08093E6019093E701A093E80120
:100FA000B093E9018CE091E09093E3018093E2013A
:100FB00085EC90E09093EF018093EE0184EC90E05B
:100FC0009093F1018093F00180EC90E09093F30115
:100FD0008093F20181EC90E09093F5018093F4010D
:100FE00082EC90E09093F7018093F60186EC90E01C
:100FF0009093F9018093F8011092FB011092FC018B
:101000001092FD011092FE01089508950E941F059F
:101010000E9405080E94C300C8E4D6E00E94FE00BA
:101020002097E1F30E944806F9CFCF92DF92EF922A
:10103000FF920F931F93CF93DF937C016A01EB0123
:1010400000E010E00C151D0571F06991D701ED91DC
:10105000FC910190F081E02DC7010995892B19F0D1
:101060000F5F1F4FEFCFC801DF91CF911F910F91FD
:10107000FF90EF90DF90CF9008950895A1E21A2E8F
:10108000AA1BBB1BFD010DC0AA1FBB1FEE1FFF1F2C
:10109000A217B307E407F50720F0A21BB30BE40B7C
:1010A000F50B661F771F881F991F1A9469F76095C3
:1010B0007095809590959B01AC01BD01CF0108957D
:1010C000EE0FFF1F0590F491E02D0994CF93DF936D
:1010D0008230910510F482E090E0E0918102F0917D
:1010E000820220E030E0A0E0B0E0309739F14081AA
:1010F000518148175907B8F04817590771F4828190
:101100009381109729F013969C938E9312972CC07D
:10111000909382028093810227C02115310531F01E
:101120004217530718F0A901DB0101C0EF019A0132
:10113000BD01DF010280F381E02DD7CF21153105FC
:10114000F9F0281B390B2430310580F48A819B810A
:101150006115710521F0FB019383828304C0909394
:10116000820280938102FE01329644C0FE01E20FAA
:10117000F31F8193919322503109398328833AC018
:1011800020917F0230918002232B41F420910201B3
:10119000309103013093800220937F02209100015F
:1011A000309101012115310541F42DB73EB7409131
:1011B000040150910501241B350BE0917F02F09151
:1011C0008002E217F307A0F42E1B3F0B2817390704
:1011D00078F0AC014E5F5F4F2417350748F04E0F93
:1011E0005F1F5093800240937F028193919302C0CE
:1011F000E0E0F0E0CF01DF91CF910895CF93DF934E
:10120000009709F487C0FC01329713821282C091C3
:101210008102D0918202209781F420813181280FB0
:10122000391F80917F02909180028217930779F590
:10123000F0938002E0937F026DC0DE0120E030E099
:10124000AE17BF0750F412964D915C9113979D0114
:101250004115510509F1DA01F3CFB383A28340812F
:101260005181840F951F8A179B0771F48D919C9172
:101270001197840F951F02969183808312968D910A
:101280009C911397938382832115310529F4F09360
:101290008202E09381023EC0D9011396FC93EE9343
:1012A00012974D915D91A40FB51FEA17FB0779F4D2
:1012B00080819181840F951F0296D90111969C938C
:1012C0008E938281938113969C938E931297E0E084
:1012D000F0E08A819B81009719F0FE01EC01F9CFC3
:1012E000CE01029628813981820F931F20917F02BF
:1012F000309180022817390769F4309729F4109249
:1013000082021092810202C013821282D093800264
:10131000C0937F02DF91CF910895DC0101C06D93EE
:0C13200041505040E0F70895F894FFCFD2
:10132C0000008302800005000000000099061508EB
:08133C001B06340626067706A5
:00000001FF
