:100000000C946D000C9495000C9495000C94950044
:100010000C9495000C9495000C9495000C9495000C
:100020000C9495000C9495000C9495000C949500FC
:100030000C9495000C9495000C9495000C949500EC
:100040000C94F0060C9495000C94E4090C94160A98
:100050000C9495000C9495000C9495000C949500CC
:100060000C9495000C949500C105CA05CF05F005C8
:10007000090612061706380649067A060000000827
:10008000000201000003040700000000000000005F
:10009000010204081020408001020408102001021F
:1000A00004081020040404040404040402020202EC
:1000B00002020303030303030000000023002600E1
:1000C000290000000000250028002B00000000008F
:1000D000240027002A005F01460A11241FBECFEF2B
:1000E000D8E0DEBFCDBF11E0A0E0B1E0E4E3F8E18D
:1000F00002C005900D92A432B107D9F722E0A4E224
:10010000B1E001C01D92A03CB207E1F710E0CAEDDA
:10011000D0E004C02297FE010E94E60AC63DD10746
:10012000C9F70E948A0A0C94180C0C9400000F93D3
:10013000CF93DF9326E040E05BE460E070E08FE186
:1001400092E00E94820961E080910E010E940708FE
:1001500083E092E00E949D0283E092E00E948B0285
:10016000CAE0D0E08DEF91E00E94660587EE91E055
:100170000E94CD062197B1F701E024EF31E040E085
:1001800050E060910E0186E391E00E948B0425E52A
:1001900031E044E650E060E070E086E391E0DF911A
:1001A000CF910F910C94370480EE91E00E94BA0435
:1001B0008091E001882341F086E391E00E94DA0318
:1001C00081E080931002089580911002882359F0F5
:1001D00060E080910E010E94400883E092E00E945E
:1001E0008B021092100284E291E00E94F20284E2FB
:1001F00091E00E9450038823E9F0E0910C02F09115
:100200000D02EE0FFF1FEA5FFE4F6081718183E0F8
:1002100092E00E94990280910C0290910D02019649
:1002200090930D0280930C02049721F410920D021A
:1002300010920C02089580910E0290910F02892B6A
:10024000C9F0609112017091130141E050E083E028
:1002500092E00E948302609110017091110140E0D0
:1002600050E083E092E00E94830210920F0210920D
:100270000E020895609110017091110140E050E06C
:1002800083E092E00E948302609112017091130159
:1002900041E050E083E092E00E94830281E090E040
:1002A00090930F0280930E0208958DEF91E00E94CB
:1002B000660587EE91E00E94B3060C941B018F92B5
:1002C0009F92AF92BF92CF92DF92EF92FF920F93E5
:1002D0001F9303E028E049E061E070E083E092E0F2
:1002E0000E94DA011F9289E08F931F9288E08F931A
:1002F0001F9287E08F9396E0892E912C25E0A22E05
:10030000B12C34E0C32ED12C43E0E42EF12C02E0DA
:1003100010E021E030E040E050E063E072E08DEF7B
:1003200091E00E94CD041F9280E18F935FE0852EC3
:10033000912C6EE0A62EB12C73E1C72ED12CE2E1F8
:10034000EE2EF12C01E110E02CE030E04DE050E029
:1003500063E072E087EE91E00E947F0520E041E0DB
:1003600050E06CE070E080EE91E00E94970486E33C
:1003700091E00E94A70312E3E12EF12C00E010E0CF
:1003800020E040E06BE084E291E00E94BA028DB789
:100390009EB708960FB6F8949EBF0FBE8DBF1F91F3
:1003A0000F91FF90EF90DF90CF90BF90AF909F9014
:1003B0008F9008950F931F93CF93DF93EC017D836C
:1003C0006C834E832F8308878FEF9FE09983888308
:1003D00080E3869F8001879F100D1124C8010E9431
:1003E000EA0A9B838A83A80160E070E0DF91CF91E5
:1003F0001F910F910C94110CAF92BF92CF92DF928C
:10040000EF92FF920F931F93CF93DF93EC0160E085
:1004100088850E9440088C819D8128E1289F800169
:10042000299F100D1124680181E0C81AD1080150DC
:100430001048000F111FAA24A394B12CD7FC2CC084
:100440008BE0E82EF12C60E08E810E944008C5010F
:100450000E2C02C0880F991F0A94E2F7EA81FB81F3
:10046000E00FF11F2081318182239323892B11F02A
:1004700061E001C060E08F810E94400861E08E81F0
:100480000E94400881E0E81AF108E8F681E0C81A05
:10049000D10802501109D2CF60E08E810E9440083D
:1004A00061E088850E94400860E08885DF91CF91F7
:1004B0001F910F91FF90EF90DF90CF90BF90AF9082
:1004C0000C944008DC011496ED91FC911597A8E17D
:1004D000AE9F9001AF9F300D11242617370790F083
:1004E000660F771FDC011296ED91FC911397E60FD2
:1004F000F71FCA014115B0E15B0710F08FEF9FE0D5
:100500009183808308954130510519F4FC014081A5
:1005100051810C946202DC011296ED91FC911397CB
:1005200028E130E01192119221503109D9F70C9451
:10053000FC01FC01718360830895CF93DF93EC018C
:100540008A819B81892B91F061E08E810E9407084E
:1005500061E08F810E94070861E088850E9407089A
:1005600060E088850E94400881E001C080E0DF9162
:10057000CF910895EF92FF920F931F93CF93DF9344
:10058000EC01862F688349832A83EE86FF86088BD9
:10059000198B60E00E9407088981882321F061E0BF
:1005A00088810E94400888810E9476088B839A8106
:1005B000992321F091E0811190E09B830E943A07FA
:1005C0006E837F83888799872B812C831D826A871E
:1005D0007B878C879D87DF91CF911F910F91FF9033
:1005E000EF900895CF92DF92EF92FF920F931F93B7
:1005F000CF93DF93EC010E943A076093120270934D
:100600001302809314029093150288810E94760849
:10061000809311029A81992329F091E0811190E051
:1006200090931102409112025091130260911402B2
:10063000709115020A851B852C853D856A017B0119
:10064000C01AD10AE20AF30A0E851F852889398962
:100650009B81C016D106E206F30638F44E835F8311
:10066000688779871D82892F12C09C83809111022F
:100670008B834E835F8368877987891739F04A8730
:100680005B876C877D8791E09D8301C01D82DF9130
:10069000CF911F910F91FF90EF90DF90CF90089531
:1006A000FC018381811104C081E09581911101C019
:1006B00080E00895FC0110820895CF92DF92EF92BE
:1006C000FF92CF93DF93EC016A017B018B859C85C0
:1006D000AD85BE859A01AB01281B390B4A0B5B0B1C
:1006E000DA01C90149815A816B817C8184179507A0
:1006F000A607B707D8F08881813019F0823029F039
:100700000CC0E985FA85099508C061E088858111EA
:1007100060E068878F810E944008CB86DC86ED868A
:10072000FE868F8598890196988B8F878D819E8113
:1007300097FD06C02F853889281739070CF01882D5
:10074000DF91CF91FF90EF90DF90CF9008950F93BE
:100750001F93CF93DF93EC018C0106551F4FCE0101
:100760000E945A036196C017D107C9F7DF91CF9154
:100770001F910F910895CF92DF92EF92FF921F93F6
:10078000CF93DF936A017B01EC011AE08881882313
:1007900029F0B701A601CE010E945D0311506196B8
:1007A0001111F4CFDF91CF911F91FF90EF90DF9067
:1007B000CF900895CF93DF93EC010E943A07AB01ED
:1007C000BC01CE01DF91CF910C94BB0320E0FC0172
:1007D0003081332331F02F5F41962A30C1F78FEFFC
:1007E0000895822F0895CF92DF92EF92FF920F9398
:1007F0001F93CF93DF9300D000D0CDB7DEB76C014D
:10080000790149835A836B837C830E94E603282FF6
:1008100049815A816B817C818F3FD9F081E1280227
:10082000C00CD11C112481E0F601808341835283E6
:100830006383748316830583F286E18629830E948D
:100840003A07F6016387748785879687108A17862B
:100850002981822F0F900F900F900F90DF91CF91F1
:100860001F910F91FF90EF90DF90CF9008950F931D
:100870001F930FEF1FEF0E94F3031F910F91089535
:10088000AF92BF92DF92EF92FF920F931F93CF939D
:10089000DF9300D000D0CDB7DEB75C01D62E298320
:1008A0003A834B835C830E94E603182F29813A81A7
:1008B0004B815C818F3F01F181E11802A00CB11CDA
:1008C000112482E0F5018083D78221833283438320
:1008D00054830087602F8D2D0E944008EE0CFF1C72
:1008E000F501F682E5820E943A07F5016387748775
:1008F00085879687108A1786812F0F900F900F900B
:100900000F90DF91CF911F910F91FF90EF90DF90AB
:10091000BF90AF900895EF92FF920F93EE24EA9468
:10092000FE2C0E9440040F91FF90EF900895FC016F
:10093000862F65837683AAEFB0E0B483A3832083F8
:100940005283418360E00C940708CF93DF93EC015E
:100950006B817C81882777FD8095982F0E9469079D
:100960008881882311F0188202C081E08883DF919A
:10097000CF910895CF93DF93EC018D810E9476088B
:1009800029813A818217930729F4CE01DF91CF9113
:100990000C94A504DF91CF9108952F923F924F922E
:1009A0005F926F927F928F929F92AF92BF92CF92FF
:1009B000DF92EF92FF920F931F93CF93DF9300D0BC
:1009C000CDB7DEB73C012A01190180EE91E06983C1
:1009D0007A830E94EA0AFC01D3018D939C9380EEF6
:1009E00091E0DF019C011D9221503040E1F75182DE
:1009F00040823382228215830483F782E682D18685
:100A0000C086B386A286958684868F89988D9787BF
:100A10008687898D9A8D918B808B8B8D9C8D938B06
:100A2000828B69817A81D30113967C936E9312979E
:100A300015961C921E9214970F900F90DF91CF91F4
:100A40001F910F91FF90EF90DF90CF90BF90AF90EC
:100A50009F908F907F906F905F904F903F902F90DE
:100A60000895CF92DF92EF92FF920F931F93CF934F
:100A7000DF937C016B0100E010E0C0E0D0E0F70103
:100A80002081318182819381F901E00FF11F608122
:100A90007181CC15DD0518F441E050E002C040E062
:100AA00050E00E94830221960E5F1F4FCA30D1058D
:100AB00031F7F70182819381DF91CF911F910F91DF
:100AC000FF90EF90DF90CF900C94FC01CF93DF93D9
:100AD000EC016C817D816A30710549F460E070E061
:100AE0000E9431051D821C82DF91CF9108956F5FB6
:100AF0007F4F7D836C83DF91CF910C9431058F9272
:100B00009F92AF92BF92CF92DF92EF92FF920F939C
:100B10001F93CF93DF93CDB7DEB7FC015783468396
:100B20003187208713870287F586E486D786C686B5
:100B3000B18AA08A938A828A8F859889958B848BC3
:100B4000718360831382128255834483DF91CF9136
:100B50001F910F91FF90EF90DF90CF90BF90AF90DB
:100B60009F908F900895CF93DF93EC0188819981B6
:100B70006A30710508F0EBC0FB01EC5CFF4F0C9490
:100B8000E40A6E817F8141E050E00E948302688523
:100B9000798555C06885798541E050E075C06E81E2
:100BA0007F8141E050E00E9483026885798541E0C1
:100BB00050E0888199810E9483026A897B8941E0A3
:100BC00050E0888199810E9483026C857D8541E097
:100BD00050E0888199810E9483026E857F85B2C032
:100BE0006E817F8141E050E00E94830268857985B3
:100BF00041E050E0888199810E9483026A857B856B
:100C000041E050E0888199810E9483026C857D8556
:100C100099C06885798541E050E00E9483026A8529
:100C20007B8557C06E817F8141E050E06FC06E814F
:100C30007F8141E050E00E9483026A897B8941E024
:100C400050E0888199810E9483026A857B8541E01A
:100C500050E0888199810E9483026C857D8541E006
:100C600050E0888199810E9483026E857F8562C0F1
:100C70006E817F8141E050E00E9483026885798522
:100C800041E050E0888199810E9483026A857B85DA
:100C900059C06E817F8141E050E00E9483026885E7
:100CA000798541E050E0888199810E9483026A85BC
:100CB0007B8541E050E0888199810E9483026C85A8
:100CC0007D8541E050E0888199810E9483026E8594
:100CD0007F8541E050E0888199810E948302688984
:100CE000798941E050E0888199810E9483026A8974
:100CF0007B8928C06E817F8141E050E00E948302A1
:100D00006885798541E050E0888199810E9483025D
:100D10006A857B8541E050E0888199810E94830249
:100D20006C857D8541E050E0888199810E94830235
:100D30006A897B8941E050E0888199810E94830221
:100D40006889798941E050E08881998104C06C8983
:100D50007D8941E050E00E94830288819981DF9182
:100D6000CF910C94FC01CF93DF93EC016A817B81DE
:100D70006B30710539F460E070E00E94B3051B82AE
:100D80001A8206C06F5F7F4F7B836A830E94B30520
:100D90008A819B81DF91CF910895CF93DF93EC01FE
:100DA0006C817D818C899D896817790769F46E81D2
:100DB0007F8141E050E0888199810E9483028E8189
:100DC0009F819D838C8307C06F5F7F4F7D836C8382
:100DD000CE010E94B3058C819D81DF91CF91089552
:100DE0001F920F920FB60F9211242F933F938F9360
:100DF0009F93AF93BF938091170290911802A09197
:100E00001902B0911A023091160223E0230F2D37F8
:100E100020F40196A11DB11D05C026E8230F0296FE
:100E2000A11DB11D20931602809317029093180202
:100E3000A0931902B0931A0280911B0290911C0298
:100E4000A0911D02B0911E020196A11DB11D8093BB
:100E50001B0290931C02A0931D02B0931E02BF912F
:100E6000AF919F918F913F912F910F900FBE0F9057
:100E70001F9018952FB7F89460911702709118027F
:100E80008091190290911A022FBF08953FB7F894EC
:100E900080911B0290911C02A0911D02B0911E0234
:100EA00026B5A89B05C02F3F19F00196A11DB11DC5
:100EB0003FBF6627782F892F9A2F620F711D811DE2
:100EC000911D42E0660F771F881F991F4A95D1F741
:100ED00008958F929F92AF92BF92CF92DF92EF923E
:100EE000FF926B017C010E9446074B015C01C1141B
:100EF000D104E104F104F1F00E94C10A0E94460706
:100F0000681979098A099B09683E73408105910532
:100F100070F321E0C21AD108E108F10888EE880ECA
:100F200083E0981EA11CB11CC114D104E104F1049A
:100F300029F7DDCFFF90EF90DF90CF90BF90AF907B
:100F40009F908F900895789484B5826084BD84B515
:100F5000816084BD85B5826085BD85B5816085BDB4
:100F6000EEE6F0E0808181608083E1E8F0E01082CD
:100F7000808182608083808181608083E0E8F0E00E
:100F8000808181608083E1EBF0E0808184608083F8
:100F9000E0EBF0E0808181608083EAE7F0E080812F
:100FA000846080838081826080838081816080838F
:100FB0008081806880831092C1000895833081F021
:100FC00028F4813099F08230A1F008958730A9F09B
:100FD0008830B9F08430D1F4809180008F7D03C0D7
:100FE000809180008F7780938000089584B58F77FB
:100FF00002C084B58F7D84BD08958091B0008F7745
:1010000003C08091B0008F7D8093B0000895CF938E
:10101000DF9390E0FC01E057FF4F2491FC01EC5579
:10102000FF4F8491882349F190E0880F991FFC01BC
:10103000E453FF4FA591B4918E539F4FFC01C5918E
:10104000D4919FB7611108C0F8948C9120958223A8
:101050008C93888182230AC0623051F4F8948C9179
:10106000322F309583238C938881822B888304C010
:10107000F8948C91822B8C939FBFDF91CF91089530
:101080000F931F93CF93DF931F92CDB7DEB7282F17
:1010900030E0F901E458FF4F8491F901E057FF4F28
:1010A0001491F901EC55FF4F04910023C9F08823F6
:1010B00021F069830E94DE076981E02FF0E0EE0FE6
:1010C000FF1FEE53FF4FA591B4919FB7F8948C91F9
:1010D000611103C01095812301C0812B8C939FBFA8
:1010E0000F90DF91CF911F910F910895CF93DF93D0
:1010F000282F30E0F901E458FF4F8491F901E057BF
:10110000FF4FD491F901EC55FF4FC491CC2391F0DE
:1011100081110E94DE07EC2FF0E0EE0FFF1FE85474
:10112000FF4FA591B4912C912D2381E090E021F403
:1011300080E002C080E090E0DF91CF910895FC0153
:10114000818D228D90E0805C9F4F821B91098F736F
:1011500099270895FC01918D828D981731F0828D29
:10116000E80FF11D858D90E008958FEF9FEF0895B2
:10117000FC01918D828D981761F0828DDF01A80F9F
:10118000B11D5D968C91928D9F5F9F73928F90E0C1
:1011900008958FEF9FEF08958CE39AE0892B49F033
:1011A00080E090E0892B29F00E943C0A81110C9488
:1011B00000000895FC01848DDF01A80FB11DA35A22
:1011C000BF4F2C91848D90E001968F739927848F67
:1011D000A689B7892C93A089B1898C9180648C935E
:1011E000938D848D981306C00288F389E02D808149
:1011F0008F7D80830895CF93DF93EC01888D8823C2
:10120000C9F0EA89FB89808185FD05C0A889B98973
:101210008C9186FD0FC00FB607FCF5CF808185FF4E
:10122000F2CFA889B9898C9185FFEDCFCE010E94BC
:10123000DA08E7CFDF91CF910895CF92DF92FF9246
:101240000F931F93CF93DF931F92CDB7DEB76C013F
:1012500081E0D60158968C9358975B969C915B974A
:101260005C968C915C97981307C05096ED91FC9119
:101270005197808185FD2EC0F601038D10E00F5F30
:101280001F4F0F731127F02EF601848DF81211C035
:101290000FB607FCF9CFD6015096ED91FC9151970E
:1012A000808185FFF1CFC60169830E94DA086981D8
:1012B000EBCF838DE80FF11DE35AFF4F6083D6011A
:1012C0005B960C935B975296ED91FC9153978081BE
:1012D00080620CC0D6015696ED91FC9157976083C1
:1012E0005096ED91FC91519780818064808381E0DC
:1012F00090E00F90DF91CF911F910F91FF90DF90C1
:10130000CF900895BF92CF92DF92EF92FF92CF934A
:10131000DF93EC016A017B01B22EE889F98982E052
:101320008083411581EE580761057105A1F060E0E9
:1013300079E08DE390E0A70196010E94C20A215056
:10134000310941095109569547953795279521153A
:1013500080E1380798F0E889F989108260E874E83C
:101360008EE190E0A70196010E94C20A2150310946
:10137000410951095695479537952795EC85FD8587
:101380003083EE85FF852083188EEC89FD89B0823D
:10139000EA89FB89808180618083EA89FB89808179
:1013A00088608083EA89FB89808180688083EA89FC
:1013B000FB8980818F7D8083DF91CF91FF90EF90BB
:1013C000DF90CF90BF9008951F920F920FB60F92AB
:1013D00011242F938F939F93EF93FF93E0912F020C
:1013E000F09130028081E0913502F091360282FD69
:1013F00012C09081809138028F5F8F7320913902E3
:10140000821751F0E0913802F0E0E15EFD4F958FD8
:101410008093380201C08081FF91EF919F918F915D
:101420002F910F900FBE0F901F9018951F920F9243
:101430000FB60F9211242F933F934F935F936F93A7
:101440007F938F939F93AF93BF93EF93FF938FE11E
:1014500092E00E94DA08FF91EF91BF91AF919F91C6
:101460008F917F916F915F914F913F912F910F904D
:101470000FBE0F901F9018958FE192E00E949F0879
:1014800021E0892B09F420E0822F08951092220296
:101490001092210288EE93E0A0E0B0E08093230256
:1014A00090932402A0932502B093260288E191E054
:1014B0009093200280931F0285EC90E090932C0281
:1014C00080932B0284EC90E090932E0280932D0267
:1014D00080EC90E09093300280932F0281EC90E0BA
:1014E000909332028093310282EC90E09093340228
:1014F0008093330286EC90E090933602809335021D
:10150000109238021092390210923A0210923B0265
:10151000089508950E94A3070E94890A0E949700D7
:10152000CCECD8E00E94D4002097E1F30E94CC08D4
:10153000F9CFCF92DF92EF92FF920F931F93CF9349
:10154000DF937C016A01EB0100E010E00C151D0542
:1015500071F06991D701ED91FC910190F081E02D3E
:10156000C7010995892B19F00F5F1F4FEFCFC801F5
:10157000DF91CF911F910F91FF90EF90DF90CF906F
:1015800008950895A1E21A2EAA1BBB1BFD010DC0F0
:10159000AA1FBB1FEE1FFF1FA217B307E407F50723
:1015A00020F0A21BB30BE40BF50B661F771F881FFF
:1015B000991F1A9469F760957095809590959B0195
:1015C000AC01BD01CF010895EE0FFF1F0590F4910E
:1015D000E02D0994CF93DF938230910510F482E0DF
:1015E00090E0E091BE02F091BF0220E030E0A0E088
:1015F000B0E0309739F14081518148175907B8F070
:101600004817590771F482819381109729F0139636
:101610009C938E9312972CC09093BF028093BE022E
:1016200027C02115310531F04217530718F0A901E1
:10163000DB0101C0EF019A01BD01DF010280F381EE
:10164000E02DD7CF21153105F9F0281B390B2430B7
:10165000310580F48A819B816115710521F0FB01C0
:101660009383828304C09093BF028093BE02FE01E5
:10167000329644C0FE01E20FF31F819391932250F2
:101680003109398328833AC02091BC023091BD02D0
:10169000232B41F420910201309103013093BD02CC
:1016A0002093BC02209100013091010121153105E8
:1016B00041F42DB73EB74091040150910501241B20
:1016C000350BE091BC02F091BD02E217F307A0F4E4
:1016D0002E1B3F0B2817390778F0AC014E5F5F4F88
:1016E0002417350748F04E0F5F1F5093BD024093FB
:1016F000BC028193919302C0E0E0F0E0CF01DF9162
:10170000CF910895CF93DF93009709F487C0FC0130
:10171000329713821282C091BE02D091BF022097ED
:1017200081F420813181280F391F8091BC02909172
:10173000BD028217930779F5F093BD02E093BC02D6
:101740006DC0DE0120E030E0AE17BF0750F4129606
:101750004D915C9113979D014115510509F1DA01F5
:10176000F3CFB383A28340815181840F951F8A17E1
:101770009B0771F48D919C911197840F951F029690
:101780009183808312968D919C911397938382838A
:101790002115310529F4F093BF02E093BE023EC04B
:1017A000D9011396FC93EE9312974D915D91A40F7E
:1017B000B51FEA17FB0779F480819181840F951F8B
:1017C0000296D90111969C938E93828193811396F0
:1017D0009C938E931297E0E0F0E08A819B810097C2
:1017E00019F0FE01EC01F9CFCE0102962881398172
:1017F000820F931F2091BC023091BD022817390738
:1018000069F4309729F41092BF021092BE0202C010
:1018100013821282D093BD02C093BC02DF91CF919C
:101820000895DC0101C06D9341505040E0F70895E8
:04183000F894FFCF5A
:101834000000C0028000FF03FF07CC0CFF0F05006F
:101844000B000A00000000001D09990A9F08B8084F
:04185400AA08FB08DB
:00000001FF
