:100000000C946D000C9495000C9495000C94950044
:100010000C9495000C9495000C9495000C9495000C
:100020000C9495000C9495000C9495000C949500FC
:100030000C9495000C9495000C9495000C949500EC
:100040000C9450080C9495000C94440B0C94760B73
:100050000C9495000C9495000C9495000C949500CC
:100060000C9495000C949500A505CE05FF052E0671
:10007000570686068F0698069B06BC0600000008F9
:10008000000201000003040700000000000000005F
:10009000010204081020408001020408102001021F
:1000A00004081020040404040404040402020202EC
:1000B00002020303030303030000000023002600E1
:1000C000290000000000250028002B00000000008F
:1000D000240027002A002E01A60B11241FBECFEFFB
:1000E000D8E0DEBFCDBF11E0A0E0B1E0EAEEFCE178
:1000F00002C005900D92A432B107D9F722E0A4E224
:10010000B1E001C01D92AA3CB207E1F710E0CAEDD0
:10011000D0E004C02297FE010E94270DC63DD10702
:10012000C9F70E94EA0B0C94730E0C9400008DEF3B
:1001300091E00C94480587EE91E00C943307809190
:10014000180290911902892BC9F0609112017091E7
:10015000130141E050E083E092E00E9419086091B1
:1001600010017091110140E050E083E092E00E94A4
:100170001908109219021092180208956091100146
:100180007091110141E050E083E092E00E94190873
:10019000609112017091130140E050E083E092E021
:1001A0000E94190881E090E0909319028093180250
:1001B00008950F93CF93DF9326E040E056E960E087
:1001C00070E089E292E00E94E20A61E080910E0113
:1001D0000E94670983E092E00E94330883E092E086
:1001E0000E942108CAE0D0E08DEF91E00E9448050E
:1001F00087EE91E00E944D072197B1F783E092E0EE
:100200000E94210801E024EF31E040E050E06091DD
:100210000E0186E391E00E94710427E930E044E694
:1002200050E060E070E086E391E00E941D042BE95D
:1002300030E040E951E060E070E086E391E00E9448
:100240001D042FE930E044EF51E060E070E086E308
:1002500091E0DF91CF910F910C941D048F929F92AA
:10026000AF92BF92CF92DF92EF92FF920F931F93C4
:1002700003E028E049E061E070E083E092E00E9462
:1002800070071F9289E08F931F9288E08F931F92CF
:1002900087E08F9386E0882E912C95E0A92EB12CD3
:1002A00024E0C22ED12C33E0E32EF12C02E010E04A
:1002B00021E030E040E050E063E072E08DEF91E05B
:1002C0000E94B3041F9280E18F934FE0842E912C03
:1002D0005EE0A52EB12C63E1C62ED12C72E1E72E93
:1002E000F12C01E110E02CE030E04DE050E063E063
:1002F00072E087EE91E00E94610520E041E050E06D
:100300006CE070E080EE91E00E947D0486E391E075
:100310000E948D0312E3E12EF12C00E010E020E0BA
:1003200040E06BE084E291E00E94A0028DB79EB7AE
:1003300008960FB6F8949EBF0FBE8DBF1F910F9108
:10034000FF90EF90DF90CF90BF90AF909F908F90F5
:10035000089580EE91E00E94A0048091E00188233E
:1003600041F086E391E00E94C00381E080931A028D
:10037000E3C080911A02882359F060E080910E0159
:100380000E94A00983E092E00E94210810921A02C4
:1003900084E291E00E94D80284E291E00E94360358
:1003A0008823E9F0E0911602F0911702EE0FFF1F8B
:1003B000EA5FFE4F6081718183E092E00E942F0826
:1003C00080911602909117020196909317028093E4
:1003D0001602049721F4109217021092160289E275
:1003E00092E00E94FF0918161906D4F060911402D9
:1003F000709115028DEF91E00E9417056091100237
:100400007091110287EE91E00E9495058091120291
:1004100090911302181619060CF061C061E060C0DB
:1004200089E292E00E940A0A8636910509F04FC0DF
:1004300089E292E00E94180A41E060E070E089E2FF
:1004400092E00E94920C709315026093140289E26C
:1004500092E00E94180A41E060E070E089E292E0D8
:100460000E94920C709313026093120289E292E050
:100470000E94180A41E060E070E089E292E00E9488
:10048000920C709311026093100289E292E00E9434
:10049000180A41E060E070E089E292E00E94920C6C
:1004A00070930D0260930C0289E292E00E94180A98
:1004B00041E060E070E089E292E00E94920C70936B
:1004C0000F0260930E0289E292E00E94180A89E20C
:1004D00092E00E94FF0918161906ACF387CF60E07E
:1004E00080910E010E94A00980910C0290910D0252
:1004F0006091100170911101181619061CF441E069
:1005000050E002C040E050E083E092E00E94190811
:1005100080910E0290910F0260911201709113016F
:10052000181619061CF441E050E002C040E050E00B
:1005300083E092E00E94190883E092E00C94920715
:10054000EF92FF920F931F93CF93DF93EC01862FCF
:10055000688349832A83EE86FF86088B198B60E0C7
:100560000E9467098981882321F061E088810E94C7
:10057000A00988810E94D6098B839A81992321F052
:1005800091E0811190E09B830E949A086E837F83A3
:10059000888799872B812C831D826A877B878C872C
:1005A0009D87DF91CF911F910F91FF90EF9008955C
:1005B000CF92DF92EF92FF920F931F93CF93DF932F
:1005C000EC010E949A0860931C0270931D028093B4
:1005D0001E0290931F0288810E94D60980931B02FD
:1005E0009A81992329F091E0811190E090931B0268
:1005F00040911C0250911D0260911E0270911F02D9
:100600000A851B852C853D856A017B01C01AD10AAC
:10061000E20AF30A0E851F85288939899B81C01655
:10062000D106E206F30638F44E835F836887798744
:100630001D82892F12C09C8380911B028B834E8365
:100640005F8368877987891739F04A875B876C876A
:100650007D8791E09D8301C01D82DF91CF911F9125
:100660000F91FF90EF90DF90CF900895FC01838170
:10067000811104C081E09581911101C080E008954D
:10068000FC0110820895CF92DF92EF92FF92CF93F8
:10069000DF93EC016A017B018B859C85AD85BE856E
:1006A0009A01AB01281B390B4A0B5B0BDA01C9011C
:1006B00049815A816B817C8184179507A607B7070A
:1006C000D8F08881813019F0823029F00CC0E9859A
:1006D000FA85099508C061E08885811160E0688726
:1006E0008F810E94A009CB86DC86ED86FE868F85F1
:1006F00098890196988B8F878D819E8197FD06C082
:100700002F853889281739070CF01882DF91CF918F
:10071000FF90EF90DF90CF9008950F931F93CF93AA
:10072000DF93EC018C0106551F4FCE010E94400360
:100730006196C017D107C9F7DF91CF911F910F9133
:100740000895CF92DF92EF92FF921F93CF93DF93A2
:100750006A017B01EC011AE08881882329F0B70146
:10076000A601CE010E944303115061961111F4CFEE
:10077000DF91CF911F91FF90EF90DF90CF90089580
:10078000CF93DF93EC010E949A08AB01BC01CE012C
:10079000DF91CF910C94A10320E0FC013081332341
:1007A00031F02F5F41962A30C1F78FEF0895822FE5
:1007B0000895CF92DF92EF92FF920F931F93CF9302
:1007C000DF9300D000D0CDB7DEB76C01790149834B
:1007D0005A836B837C830E94CC03282F49815A81E2
:1007E0006B817C818F3FD9F081E12802C00CD11C44
:1007F000112481E0F60180834183528363837483F3
:1008000016830583F286E18629830E949A08F60101
:100810006387748785879687108A17862981822F38
:100820000F900F900F900F90DF91CF911F910F912C
:10083000FF90EF90DF90CF9008950F931F930FEFED
:100840001FEF0E94D9031F910F910895AF92BF929D
:10085000DF92EF92FF920F931F93CF93DF9300D01D
:1008600000D0CDB7DEB75C01D62E29833A834B8307
:100870005C830E94CC03182F29813A814B815C81D3
:100880008F3F01F181E11802A00CB11C112482E01C
:10089000F5018083D7822183328343835483008789
:1008A000602F8D2D0E94A009EE0CFF1CF501F68231
:1008B000E5820E949A08F501638774878587968789
:1008C000108A1786812F0F900F900F900F90DF9155
:1008D000CF911F910F91FF90EF90DF90BF90AF905D
:1008E0000895EF92FF920F93EE24EA94FE2C0E945B
:1008F00026040F91FF90EF900895FC01862F6583E9
:100900007683AAEFB0E0B483A3832083528341832C
:1009100060E00C946709CF93DF93EC016B817C81DD
:10092000882777FD8095982F0E94C90888818823A1
:1009300011F0188202C081E08883DF91CF91089581
:10094000CF93DF93EC018D810E94D60929813A81F2
:100950008217930729F4CE01DF91CF910C948B0479
:10096000DF91CF9108952F923F924F925F926F92B5
:100970007F928F929F92AF92BF92CF92DF92EF922F
:10098000FF920F931F93CF93DF9300D0CDB7DEB7C5
:100990003C012A01190180EE91E069837A830E946B
:1009A000450DFC01D3018D939C9380EE91E0DF0116
:1009B0009C011D9221503040E1F7518240823382E8
:1009C000228215830483F782E682D186C086B386AD
:1009D000A286958684868F89988D97878687898D4C
:1009E0009A8D918B808B8B8D9C8D938B828B698163
:1009F0007A81D30113967C936E93129715961C926D
:100A00001E9214970F900F90DF91CF911F910F912D
:100A1000FF90EF90DF90CF90BF90AF909F908F901E
:100A20007F906F905F904F903F902F900895CF925E
:100A3000DF92EF92FF920F931F93CF93DF937C018E
:100A40006B0100E010E0C0E0D0E0F70120813181CF
:100A500082819381F901E00FF11F60817181CC15D2
:100A6000DD0518F441E050E002C040E050E00E9493
:100A7000190821960E5F1F4FCA30D10531F7DF915B
:100A8000CF911F910F91FF90EF90DF90CF9008953D
:100A9000CF93DF93EC016C817D816A30710549F45D
:100AA00060E070E00E9417051D821C82DF91CF91EB
:100AB00008956F5F7F4F7D836C83DF91CF910C949E
:100AC00017058F929F92AF92BF92CF92DF92EF92D3
:100AD000FF920F931F93CF93DF93CDB7DEB7FC0147
:100AE000578346833187208713870287F586E486FC
:100AF000D786C686B18AA08A938A828A8F8598898A
:100B0000958B848B71836083138212825583448317
:100B1000DF91CF911F910F91FF90EF90DF90CF90D9
:100B2000BF90AF909F908F900895CF93DF93EC018B
:100B3000888199816A30710508F055C1FB01EC5C30
:100B4000FF4F6E817F810C94250D41E050E00E94A3
:100B500019086885798541E050E0888199810E9473
:100B600019086A857B8541E050E0888199810E945F
:100B700019086C857D8541E050E0888199810E944B
:100B800019086E857F8541E050E0888199810E9437
:100B900019086889798941E050E028C040E050E0B8
:100BA0000E9419086885798541E050E08881998123
:100BB0000E9419086A857B8541E050E0888199810F
:100BC0000E9419086C857D8540E050E088819981FC
:100BD0000E9419086E857F8540E050E088819981E8
:100BE0000E9419086889798940E050E088819981DC
:100BF0000E9419086A897B8940E050E0EDC041E01D
:100C000050E00E9419086885798541E050E08881AC
:100C100099810E9419086A857B8540E050E08881AF
:100C200099810E9419086A897B8941E050E0888196
:100C300099810E9419086C857D8541E050E088818A
:100C400099810E9419086E857F8541E050E0888176
:100C500099810E94190868897989CECF41E050E0D6
:100C60000E9419086885798541E050E08881998162
:100C70000E9419086A857B8541E050E0888199814E
:100C80000E9419086C857D8541E050E0888199813A
:100C90000E9419086E857F8540E050E08881998127
:100CA0000E9419086889798940E050E028C040E036
:100CB00050E00E9419086885798541E050E08881FC
:100CC00099810E9419086A857B8541E050E08881FE
:100CD00099810E9419086C857D8540E050E08881EB
:100CE00099810E9419086E857F8540E050E08881D7
:100CF00099810E9419086889798941E050E08881CA
:100D000099810E9419086A897B8964C041E050E09A
:100D10000E9419086885798540E050E035C041E0BF
:100D200050E00E9419086885798540E050E00BC0CA
:100D300041E050E035CF41E050E00E94190868855D
:100D4000798541E050E0888199810E9419086A857F
:100D50007B8541E050E0888199810E9419086C856B
:100D60007D8541E050E0888199810E9419086E8557
:100D70007F8541E050E0BBCF41E050E00E94190880
:100D80006885798541E050E0888199810E94190841
:100D90006A857B8541E050E0888199810E9419082D
:100DA0006C857D8541E050E0888199810E94190819
:100DB0006E857F8540E050E0888199810E94190806
:100DC0006A897B8941E050E0888199810E941908F5
:100DD0006889798941E050E0888199810E941908E9
:100DE0006C897D8938C06C897D8941E050E00E9422
:100DF00019086E817F8140E050E0888199810E94CE
:100E000019086885798540E050E0888199810E94C1
:100E100019086A857B8540E050E0888199810E94AD
:100E200019086C857D8540E050E0888199810E9499
:100E300019086E857F8540E050E0888199810E9485
:100E400019086889798940E050E0888199810E9479
:100E500019086A897B8940E050E088819981DF9197
:100E6000CF910C941908CF93DF93EC016A817B81B9
:100E70006B30710539F460E070E00E9495051B82CB
:100E80001A8206C06F5F7F4F7B836A830E9495053D
:100E90008A819B81DF91CF910895CF93DF93EC01FD
:100EA0006C817D818C899D896817790769F46E81D1
:100EB0007F8141E050E0888199810E9419088E81EC
:100EC0009F819D838C8307C06F5F7F4F7D836C8381
:100ED000CE010E9495058C819D81DF91CF9108956F
:100EE0000F931F93CF93DF93EC017D836C834E832D
:100EF0002F8308878FEF9FE09983888380E3869F05
:100F00008001879F100D1124C8010E94450D9B830D
:100F10008A83A80160E070E0DF91CF911F910F916B
:100F20000C946C0EAF92BF92CF92DF92EF92FF9231
:100F30000F931F93CF93DF93EC0160E088850E94AD
:100F4000A0098C819D8128E1289F8001299F100D97
:100F50001124680181E0C81AD10801501048000F1F
:100F6000111FAA24A394B12CD7FC2CC08BE0E82E2F
:100F7000F12C60E08E810E94A009C5010E2C02C0F8
:100F8000880F991F0A94E2F7EA81FB81E00FF11FB5
:100F90002081318182239323892B11F061E001C0EC
:100FA00060E08F810E94A00961E08E810E94A0090B
:100FB00081E0E81AF108E8F681E0C81AD108025089
:100FC0001109D2CF60E08E810E94A00961E088857E
:100FD0000E94A00960E08885DF91CF911F910F9159
:100FE000FF90EF90DF90CF90BF90AF900C94A0094E
:100FF000DC011496ED91FC911597A8E1AE9F90014C
:10100000AF9F300D11242617370790F0660F771F1A
:10101000DC011296ED91FC911397E60FF71FCA01C0
:101020004115B0E15B0710F08FEF9FE09183808363
:1010300008954130510519F4FC01408151810C940F
:10104000F807DC011296ED91FC91139728E130E04E
:101050001192119221503109D9F70C949207FC0199
:10106000718360830895CF93DF93EC018A819B8124
:10107000892B91F061E08E810E94670961E08F8188
:101080000E94670961E088850E94670960E08885A1
:101090000E94A00981E001C080E0DF91CF91089516
:1010A0001F920F920FB60F9211242F933F938F939D
:1010B0009F93AF93BF938091210290912202A091C0
:1010C0002302B09124023091200223E0230F2D3718
:1010D00020F40196A11DB11D05C026E8230F02963C
:1010E000A11DB11D20932002809321029093220222
:1010F000A0932302B09324028091250290912602AE
:10110000A0912702B09128020196A11DB11D8093E4
:10111000250290932602A0932702B0932802BF9144
:10112000AF919F918F913F912F910F900FBE0F9094
:101130001F9018952FB7F8946091210270912202A8
:1011400080912302909124022FBF08953FB7F89415
:101150008091250290912602A0912702B091280249
:1011600026B5A89B05C02F3F19F00196A11DB11D02
:101170003FBF6627782F892F9A2F620F711D811D1F
:10118000911D42E0660F771F881F991F4A95D1F77E
:1011900008958F929F92AF92BF92CF92DF92EF927B
:1011A000FF926B017C010E94A6084B015C01C114F7
:1011B000D104E104F104F1F00E94020D0E94A6089E
:1011C000681979098A099B09683E73408105910570
:1011D00070F321E0C21AD108E108F10888EE880E08
:1011E00083E0981EA11CB11CC114D104E104F104D8
:1011F00029F7DDCFFF90EF90DF90CF90BF90AF90B9
:101200009F908F900895789484B5826084BD84B552
:10121000816084BD85B5826085BD85B5816085BDF1
:10122000EEE6F0E0808181608083E1E8F0E010820A
:10123000808182608083808181608083E0E8F0E04B
:10124000808181608083E1EBF0E080818460808335
:10125000E0EBF0E0808181608083EAE7F0E080816C
:1012600084608083808182608083808181608083CC
:101270008081806880831092C1000895833081F05E
:1012800028F4813099F08230A1F008958730A9F0D8
:101290008830B9F08430D1F4809180008F7D03C014
:1012A000809180008F7780938000089584B58F7738
:1012B00002C084B58F7D84BD08958091B0008F7782
:1012C00003C08091B0008F7D8093B0000895CF93CC
:1012D000DF9390E0FC01E057FF4F2491FC01EC55B7
:1012E000FF4F8491882349F190E0880F991FFC01FA
:1012F000E453FF4FA591B4918E539F4FFC01C591CC
:10130000D4919FB7611108C0F8948C9120958223E5
:101310008C93888182230AC0623051F4F8948C91B6
:10132000322F309583238C938881822B888304C04D
:10133000F8948C91822B8C939FBFDF91CF9108956D
:101340000F931F93CF93DF931F92CDB7DEB7282F54
:1013500030E0F901E458FF4F8491F901E057FF4F65
:101360001491F901EC55FF4F04910023C9F0882333
:1013700021F069830E943E096981E02FF0E0EE0FC1
:10138000FF1FEE53FF4FA591B4919FB7F8948C9136
:10139000611103C01095812301C0812B8C939FBFE5
:1013A0000F90DF91CF911F910F910895CF93DF930D
:1013B000282F30E0F901E458FF4F8491F901E057FC
:1013C000FF4FD491F901EC55FF4FC491CC2391F01C
:1013D00081110E943E09EC2FF0E0EE0FFF1FE85450
:1013E000FF4FA591B4912C912D2381E090E021F441
:1013F00080E002C080E090E0DF91CF910895FC0191
:10140000818D228D90E0805C9F4F821B91098F73AC
:1014100099270895FC01918D828D981731F0828D66
:10142000E80FF11D858D90E008958FEF9FEF0895EF
:10143000FC01918D828D981761F0828DDF01A80FDC
:10144000B11D5D968C91928D9F5F9F73928F90E0FE
:1014500008958FEF9FEF08958CE99BE0892B49F069
:1014600080E090E0892B29F00E949C0B81110C9464
:1014700000000895FC01848DDF01A80FB11DA35A5F
:10148000BF4F2C91848D90E001968F739927848FA4
:10149000A689B7892C93A089B1898C9180648C939B
:1014A000938D848D981306C00288F389E02D808186
:1014B0008F7D80830895CF93DF93EC01888D8823FF
:1014C000C9F0EA89FB89808185FD05C0A889B989B1
:1014D0008C9186FD0FC00FB607FCF5CF808185FF8C
:1014E000F2CFA889B9898C9185FFEDCFCE010E94FA
:1014F0003A0AE7CFDF91CF910895CF92DF92FF9222
:101500000F931F93CF93DF931F92CDB7DEB76C017C
:1015100081E0D60158968C9358975B969C915B9787
:101520005C968C915C97981307C05096ED91FC9156
:101530005197808185FD2EC0F601038D10E00F5F6D
:101540001F4F0F731127F02EF601848DF81211C072
:101550000FB607FCF9CFD6015096ED91FC9151974B
:10156000808185FFF1CFC60169830E943A0A6981B3
:10157000EBCF838DE80FF11DE35AFF4F6083D60157
:101580005B960C935B975296ED91FC9153978081FB
:1015900080620CC0D6015696ED91FC9157976083FE
:1015A0005096ED91FC91519780818064808381E019
:1015B00090E00F90DF91CF911F910F91FF90DF90FE
:1015C000CF900895BF92CF92DF92EF92FF92CF9388
:1015D000DF93EC016A017B01B22EE889F98982E090
:1015E0008083411581EE580761057105A1F060E027
:1015F00079E08DE390E0A70196010E94030D215050
:101600003109410951095695479537952795211577
:1016100080E1380798F0E889F989108260E874E879
:101620008EE190E0A70196010E94030D215031093F
:10163000410951095695479537952795EC85FD85C4
:101640003083EE85FF852083188EEC89FD89B0827A
:10165000EA89FB89808180618083EA89FB898081B6
:1016600088608083EA89FB89808180688083EA8939
:10167000FB8980818F7D8083DF91CF91FF90EF90F8
:10168000DF90CF90BF9008951F920F920FB60F92E8
:1016900011242F938F939F93EF93FF93E09139023F
:1016A000F0913A028081E0913F02F091400282FD88
:1016B00012C09081809142028F5F8F73209143020C
:1016C000821751F0E0914202F0E0E75DFD4F958F07
:1016D0008093420201C08081FF91EF919F918F9191
:1016E0002F910F900FBE0F901F9018951F920F9281
:1016F0000FB60F9211242F933F934F935F936F93E5
:101700007F938F939F93AF93BF93EF93FF9389E260
:1017100092E00E943A0AFF91EF91BF91AF919F91A1
:101720008F917F916F915F914F913F912F910F908A
:101730000FBE0F901F90189589E292E00E94FF095A
:1017400021E0892B09F420E0822F089510922C02C9
:1017500010922B0288EE93E0A0E0B0E080932D027F
:1017600090932E02A0932F02B093300288E191E073
:1017700090932A028093290285EC90E090933602A0
:101780008093350284EC90E0909338028093370286
:1017900080EC90E090933A028093390281EC90E0E3
:1017A00090933C0280933B0282EC90E090933E0247
:1017B00080933D0286EC90E09093400280933F023C
:1017C000109242021092430210924402109245027B
:1017D000089508950E9403090E94E90B0E94D90010
:1017E000CCE2DAE00E94A9012097E1F30E942C0AE2
:1017F000F9CFCF92DF92EF92FF920F931F93CF9387
:10180000DF937C016A01EB0100E010E00C151D057F
:1018100071F06991D701ED91FC910190F081E02D7B
:10182000C7010995892B19F00F5F1F4FEFCFC80132
:10183000DF91CF911F910F91FF90EF90DF90CF90AC
:1018400008950F931F93CF93DF93EC010E949A08A2
:10185000688779878A879B87E881F9810084F18589
:10186000E02DCE01099597FF15C00E949A080885C2
:1018700019852A853B85601B710B820B930B0C81AC
:101880001D812E813F81601771078207930720F326
:101890008FEF9FEFDF91CF911F910F910895FF92EE
:1018A0000F931F93CF93DF93EC018B01F42ECE01A6
:1018B0000E94210C9C0197FD28C08D32910519F1E1
:1018C000C0970A9710F1FF2019F02E323105F9F078
:1018D00001301105F9F00230110569F42D303105A0
:1018E00051F034F4295031092230310520F012C072
:1018F0002032310579F4E881F9810680F781E02D05
:10190000CE010995D4CF8DE203C0C90105C08EE296
:1019100090E002C08FEF9FEFDF91CF911F910F9169
:10192000FF900895CF92DF92FF920F931F93CF9372
:10193000DF9300D000D0CDB7DEB76C01042F40E0BC
:101940000E944F0CFC0197FD4BC020E030E0A90144
:10195000F12C112707FD1095E017F107E9F0ED32A2
:10196000F105C1F0CF01C0970A97B0F4AAE0B0E04A
:101970000E942B0D9B01AC01CF01AA2797FDA095DA
:10198000BA2F280F391F4A1F5B1F20533109410905
:10199000510902C0FF24F394D601ED91FC91068019
:1019A000F781E02DC60129833A834B835C83099537
:1019B000C6010E94210CFC01C09729813A814B810C
:1019C0005C810A9748F2E017F10731F2FF2061F0DD
:1019D00066277727CB01621B730B840B950B06C020
:1019E00060E070E0CB0102C0CA01B9010F900F9016
:1019F0000F900F90DF91CF911F910F91FF90DF908B
:101A0000CF9008950895A1E21A2EAA1BBB1BFD01D9
:101A10000DC0AA1FBB1FEE1FFF1FA217B307E407CD
:101A2000F50720F0A21BB30BE40BF50B661F771F25
:101A3000881F991F1A9469F7609570958095909505
:101A40009B01AC01BD01CF010895EE0FFF1F059072
:101A5000F491E02D09940E94360DA59F900DB49F3E
:101A6000900DA49F800D911D11240895A29FB00197
:101A7000B39FC001A39F700D811D1124911DB29FC2
:101A8000700D811D1124911D0895CF93DF93823035
:101A9000910510F482E090E0E091C802F091C90253
:101AA00020E030E0A0E0B0E0309739F14081518192
:101AB00048175907B8F04817590771F48281938184
:101AC000109729F013969C938E9312972CC09093A5
:101AD000C9028093C80227C02115310531F0421791
:101AE000530718F0A901DB0101C0EF019A01BD0104
:101AF000DF010280F381E02DD7CF21153105F9F008
:101B0000281B390B2430310580F48A819B816115B3
:101B1000710521F0FB019383828304C09093C90275
:101B20008093C802FE01329644C0FE01E20FF31F0B
:101B30008193919322503109398328833AC02091AF
:101B4000C6023091C702232B41F42091020130914B
:101B500003013093C7022093C60220910001309107
:101B600001012115310541F42DB73EB74091040123
:101B700050910501241B350BE091C602F091C7027C
:101B8000E217F307A0F42E1B3F0B2817390778F054
:101B9000AC014E5F5F4F2417350748F04E0F5F1FB3
:101BA0005093C7024093C6028193919302C0E0E034
:101BB000F0E0CF01DF91CF910895CF93DF930097AD
:101BC00009F487C0FC01329713821282C091C802C7
:101BD000D091C902209781F420813181280F391FCB
:101BE0008091C6029091C7028217930779F5F0930E
:101BF000C702E093C6026DC0DE0120E030E0AE1700
:101C0000BF0750F412964D915C9113979D014115B9
:101C1000510509F1DA01F3CFB383A28340815181E9
:101C2000840F951F8A179B0771F48D919C911197D2
:101C3000840F951F02969183808312968D919C91BB
:101C40001397938382832115310529F4F093C902F8
:101C5000E093C8023EC0D9011396FC93EE9312970D
:101C60004D915D91A40FB51FEA17FB0779F48081B0
:101C70009181840F951F0296D90111969C938E93A2
:101C80008281938113969C938E931297E0E0F0E00B
:101C90008A819B81009719F0FE01EC01F9CFCE01FA
:101CA000029628813981820F931F2091C6023091BC
:101CB000C7022817390769F4309729F41092C9022E
:101CC0001092C80202C013821282D093C702C0933E
:101CD000C602DF91CF910895DC0101C06D934150A0
:0A1CE0005040E0F70895F894FFCF9C
:101CEA000000CA028000FF03FF07CC0CFF0F0500AB
:101CFA000B000A00000000007D0AF90BFF09180A10
:041D0A000A0A5B0A5C
:00000001FF
